:020000040800F2
:1000000058040020A9010008AF0D0008030D0008E6
:10001000AD0D0008B5020008E90F0008000000005F
:10002000000000000000000000000000B30D000808
:10003000B702000800000000B10D0008B50D00086F
:10004000C3010008C3010008C3010008C301000880
:10005000C3010008C3010008C3010008C301000870
:10006000C3010008C3010008C3010008C301000860
:10007000C3010008C3010008C3010008C301000850
:10008000C3010008C3010008C3010008000000000C
:10009000000000000000000000000000C301000894
:1000A000C3010008C3010008C3010008C301000820
:1000B000C3010008C3010008C3010008C301000810
:1000C000C3010008C3010008C3010008C301000800
:1000D000C3010008C3010008C301000800000000BC
:1000E000B9020008C3010008C301000800000000B5
:1000F000000000000000000000000000C301000834
:1001000000000000C3010008C3010008C30100088B
:1001100000000000000000000000000000000000DF
:10012000C3010008C3010008C3010008C30100089F
:10013000C3010008000000000000000000000000F3
:10014000000000000000000000000000C3010008E3
:10015000C3010008C3010008C3010008C30100086F
:10016000C3010008C30100080000000000000000F7
:10017000000000000000000000000000000000007F
:1001800000000000C30100080000000000000000A3
:10019000C3010008DFF80CD000F07AF800480047EF
:1001A0007D10000858040020064880470648004794
:1001B000FEE7FEE7FEE7FEE7FEE7FEE7FEE7FEE717
:1001C000FEE7FEE7410E0008950100082DE9F05F0B
:1001D0000546002092469B468846064681464024B6
:1001E0001BE0284641464746224600F041F8534668
:1001F0005A46C01A914110D311461846224600F0C3
:1002000028F82D1A67EB01084F46224601200021ED
:1002100000F01FF817EB00094E41201EA4F1010465
:10022000DFDC484631462A464346BDE8F09FD2B25D
:1002300001E000F8012B491EFBD270470022F6E7CF
:1002400010B513460A4604461946FFF7F0FF20464C
:1002500010BD202A04DB203A00FA02F1002070478A
:100260009140C2F1200320FA03F3194390407047F4
:10027000202A04DB203A21FA02F00021704721FAFB
:1002800002F3D040C2F12002914008431946704762
:10029000064C074D06E0E06840F0010394E80700D3
:1002A00098471034AC42F6D3FFF778FF1C110008D2
:1002B0003C110008FEE770474FF4005000F018B8FA
:1002C00070B5044600F0F0F80546601C02D0044802
:1002D0000078044400F0E8F8401BA042FAD370BD57
:1002E0000400002001490120087070470000002030
:1002F000044910B50A68024202D00860FFF7F2FF15
:1003000010BD0000143C01402DE9F84F00224FF0D1
:10031000010803254FF00F0E0B6808FA02F4234082
:10032000A34271D14E68012E05D0022E03D0112EAA
:1003300001D0122E15D18668570005FA07FC26EA6F
:100340000C06D1F80CC00CFA07FC4CEA060CC0F8FD
:1003500008C04668A6430C79C4F3001494403443A3
:100360004460C668570005FA07FC8C6826EA0C064C
:10037000BC403443C4604C68022C01D0122C13D111
:10038000D40800EB8404A346D4F8209054074FEA25
:10039000D46A0EFA0AF629EA06090E6906FA0AF67E
:1003A00046EA0906CBF8206004680E7924EA0C04BA
:1003B00006F00306BE40264306604C68E40056D5AE
:1003C0002E4C266846F480462660246822F00306F8
:1003D00004F4804400942A4C3444A446D4F80848D9
:1003E0009607370F0EFA07F6B443264EB04201D1F6
:1003F000002615E0244EB04201D1012610E0234E24
:10040000B04202D102260BE031E0214EB04201D1D0
:10041000032605E01F4EB04201D1042600E0072666
:10042000BE402643CCF808681B4E34684F689C4396
:10043000FF0300D51C433460174E361D34684F68E7
:100440009C43BF0300D51C433460134E0836346808
:100450004F689C43FF0200D51C4334600E4E0C369F
:1004600034684F689C43BF0200D51C433460521C63
:10047000102AFFF451AFBDE8F88F00004438024065
:100480000030014000000240000402400008024029
:10049000000C024000100240003C01400AB18161A2
:1004A00070470904FBE700000148806870470000BE
:1004B000040000200248816802781144816070477E
:1004C000040000200B4810B5016841F40071016080
:1004D000016841F480610160016841F4807101604C
:1004E000032000F071F8002000F006F800F024F876
:1004F000002010BD003C024070B50D4D04464FF485
:100500007A712878B1FBF0F00A490968B1FBF0F084
:1005100000F020FB48B9102C07D200222146501EC3
:1005200000F032F800206C6070BD012070BD00004A
:1005300004000020100000200B4882B0016841F444
:1005400080410160006800F4804000900648001F70
:10055000016841F080510160006800F08050009017
:10056000072002B000F030B844380240002809DB10
:1005700000F01F02012191404009800000F1E020BD
:10058000C0F8001170470000F0B40E4B1B680C4619
:10059000C3F30223C3F10705042D00D90425191D57
:1005A000072901D2002300E0DB1E012606FA05F12F
:1005B000491E214099409E40761E16403143F0BCB2
:1005C00000F01CBD0CED00E0064900F007020868D1
:1005D0004FF6FF03184040EA0220034A1043086028
:1005E000704700000CED00E00000FA050B4A1368AC
:1005F00023F00303034313600948026842F0040236
:100600000260012907D040BF20BF20BF016821F050
:1006100004010160704730BFF8E70000007000403F
:1006200010ED00E02DE9F0470E46050065D0DFF83B
:100630001481D8F80000F7B200F00F00B04207D2E2
:1006400088F80070D8F8000000F00F00B04254D1D4
:1006500028683D4C810712D5400703D5206840F437
:10066000E05020602878000703D5206840F46040FF
:1006700020602068A96820F0F000084320602878F6
:10068000C0072DD0304968680839012812D00228E7
:1006900013D0032811D00968890700292DDA2168B1
:1006A00021F0030101432160FFF7FEFE814641F284
:1006B000883A0EE009688903EFE709688901ECE7E9
:1006C000FFF7F2FEA0EB0901514502D90320BDE876
:1006D000F0872068696800F00C00B0EB810FEFD163
:1006E000D8F80010404601F00F01B14207D9077059
:1006F000006800F00F00B04201D00120E7E7287841
:10070000400705D52068E96820F4E05008432060E0
:100710002878000706D52068296920F4604040EA5F
:10072000C100206000F038F82168084AC1F30311C5
:10073000515CC8400649086006480068FFF7DCFEC7
:100740000020C4E7003C02400838024004110008C1
:1007500010000020080000200448054900680968CE
:10076000044AC1F38221515CC84070471000002048
:100770000838024014110008044805490068096857
:10078000044AC1F34231515CC84070471000002058
:100790000838024014110008154810B5006810F020
:1007A0000C02144813D04110042A0FD0082A0ED18D
:1007B0000F4C241F2268236802F03F025B0207D51A
:1007C0002068C0F38810A0FB010106E0084610BDB8
:1007D0002168C1F38811A1FB00010023FFF7F6FC9B
:1007E0002168C1F30141491C4900B0FBF1F010BD83
:1007F000083802400024F4002DE9F84F04006ED0C0
:100800002078DFF83C93C007A9F104054AD009F12C
:1008100004000168C1F38101012908D00068C0F318
:10082000810002280AD1D9F80000400206D52868C4
:10083000800337D560680028E1D033E06068B0F508
:10084000803F10D0B0F5A02F286810D020F4803061
:100850002860286820F4802028606068A8B1FFF72D
:1008600023FE06460DE0286840F48030F4E740F4AB
:1008700080202860F7E700BFFFF716FE801B642882
:1008800073D828688003F7D50CE0FFF70DFE064605
:1008900005E000BFFFF708FE801B6428F0D8286839
:1008A0008003F7D42078DFF89C8280074FF0000A9D
:1008B0003ED5A348001D016811F00C0F08D0006858
:1008C000C0F3810002280BD1D9F80000400207D400
:1008D0002868800716D5E068012800D112E02BE1D6
:1008E000E068B8B10120C8F80000FFF7DDFD06465A
:1008F00005E000BFFFF7D8FD801B0228C0D828689C
:100900008007F7D52868216920F0F80040EAC10087
:1009100028600DE0C8F800A0FFF7C6FD064604E019
:10092000FFF7C2FD801B02281FD828688007F7D474
:100930002078000722D5824E83486169703671B1F4
:1009400001210160FFF7B0FD074604E0FFF7ACFDB1
:10095000C01B022809D830688007F7D50EE0C0F820
:1009600000A0FFF7A1FD074605E082E0FFF79CFD30
:10097000C01B02287DD830688007F7D42078400754
:1009800068D5DFF8BCB100270BF13C0BDBF80000A9
:10099000C0000BD4DBF8001041F08051CBF8001000
:1009A000DBF80000012700F080500090674E3068AF
:1009B000C00510D4306840F480703060FFF774FDDB
:1009C000009005E0FFF770FD0099401A022850D80A
:1009D0003068C005F6D55A4EA0686C3601280FD095
:1009E0000528306810D020F001003060306820F019
:1009F00004003060A068B8B1FFF756FD00900FE02A
:100A0000306840F00100F4E740F004003060F7E7A0
:100A1000FFF74AFD0099411A41F28830814266D8B9
:100A200030688007F4D50EE0FFF73EFD009007E048
:100A3000FFF73AFD0099411A41F28830814256D8B9
:100A400030688007F4D42FB1DBF8001021F080511A
:100A5000CBF80010A069C8B33949091D0968C1F372
:100A6000810102294AD00228504607D0C8F8600008
:100A700000E03CE0FFF718FD04463BE04746C8F8BD
:100A80006000FFF711FD064605E000BFFFF70CFD13
:100A9000801B02282BD828688001F7D4D4E90701ED
:100AA0000843A16A2A4A490802EB0141626A41EA05
:100AB0008211084394F82C1040EA0161C9F8001033
:100AC00001203866FFF7F0FC044606E036E000BF80
:100AD000FFF7EAFC001B022809D828688001F7D537
:100AE0002CE000BFFFF7E0FC001B022802D9032026
:100AF000BDE8F88F28688001F4D41FE00128F7D002
:100B0000D9F80000E26900F48001914214D1226A10
:100B100000F03F0191420FD147F6C071626A014077
:100B2000914209D1A26A00F44031914204D1E16AB4
:100B300000F07060884201D00120D9E70020D7E79B
:100B40000438024000004742800E474200700040D7
:100B50000000FFFF10B5401EB0F1807F01D30120DF
:100B600010BD4FF0E02460610F21601700F046FADD
:100B70000020A06107202061002010BD70B5040096
:100B800004D094F83900002510B106E0012070BDB2
:100B900084F83850204600F023F8242084F83900E7
:100BA0002068C16821F40051C160204600F056F968
:100BB0002068016921F4904101612068416921F0B8
:100BC0002A0141612068C16841F40051C160E563B8
:100BD000202084F8390084F83A00002070BD00001D
:100BE00010B586B0044614216846FFF727FB134969
:100BF000206888421FD112480021026842F4003266
:100C00000260006800F4003005900D48103802685A
:100C100042F001020260006800F0010005900C2023
:100C200000900220CDE901010720CDE903106946BB
:100C30000448FFF769FB06B010BD00000044004007
:100C400040380240000002402DE9F843044690F885
:100C500039001F4616460D46202850D1B5B1AEB119
:100C600094F8380001284AD0012084F838004FF069
:100C70000008C4F83C80212084F83900FFF714FCF8
:100C8000A6848146E68484F8388026E00120BDE809
:100C9000F883E08C401EE084A0684B46B0F5805F8E
:100CA0004FF000024FF080012046009703D000F083
:100CB00069F9E8B90DE000F065F9C8B9288821683C
:100CC000C0F308004860206908B16D1C05E0AD1C48
:100CD00003E0216815F8010B4860E08C0028D8D1AA
:100CE0004B46002240212046009700F04BF908B106
:100CF0000320CCE7202084F839000020C7E7022039
:100D0000C5E7FEE730B587B014216846FFF796FACD
:100D100022480024016841F004010160016801F0EB
:100D200004010591016841F080010160016801F052
:100D300080010591016841F001010160016801F045
:100D400001010591016841F0020101600068144D44
:100D500000F002000590002220212846FFF79EFBAC
:100D60004FF4005000900F48CDE9010469460E4849
:100D7000FFF7CAFA202000900120CDE9010469465E
:100D800028460394FFF7C0FA002211462820FFF7F7
:100D9000FBFB2820FFF7EAFB07B030BD30380240EC
:100DA000000002400000211000080240FEE77047EA
:100DB00070477047FFF77EBB30B593B0302168466F
:100DC000FFF73CFA14210CA8FFF738FA1A48002460
:100DD000016841F080510160006800F0805011907E
:100DE0001648016821F4404141F400410160006867
:100DF000022500F44040119001200390102000953E
:100E000006950490CDE907404FF4A870099004209E
:100E10000A9007200B906846FFF7EEFC0F20CDE903
:100E20000C05E802CDE90E4002210CA81094FFF752
:100E3000F9FB13B030BD00004038024000700040A4
:100E40000548016841F47001016003494FF00060FA
:100E5000803908607047000088ED00E02DE9F0411E
:100E6000044600680169E26821F4405111430161C0
:100E70002169A068E2690843616911430843216858
:100E8000CA6849F20C639A430243CA602068416908
:100E9000A26921F4407111434161E0691927642579
:100EA0003226B0F5004F354A354920684FF000082A
:100EB00006D0884201D0904236D1FFF75DFC35E084
:100EC000884201D0904202D1FFF756FC01E0FFF7C3
:100ED00043FC61684A18A0FB070148EB0803FFF7D1
:100EE00075F90146B0FBF5F00201B1FBF5F06FF0CA
:100EF0001803584301EB800006EBC000B0FBF5F08F
:100F000000F0F80002EB4002B1FBF5F0584301EBB2
:100F1000800006EBC000B0FBF5F000F00700216890
:100F200010448860BDE8F081FFF716FC61688B0F04
:100F30008A00A0FB0701FFF749F90146B0FBF5F075
:100F40006FF01802504301EB800006EB0010B0FB7D
:100F5000F5F000F0F002B1FBF5F002EB0012B1FB8E
:100F6000F5F06FF01803584301EB800006EB00101A
:100F7000B0FBF5F000F00F00D1E7000000140140D5
:100F8000001001402DE9F041984617460E460446F0
:100F9000069D1DE0681C1BD02DB1FFF785FAA0EB64
:100FA0000800A84214D92068C16821F4D071C1603A
:100FB0002068416921F001014161202084F8390055
:100FC00084F83A00002084F838000320BDE8F0815E
:100FD0002068006836EA000004D00020B842D9D06A
:100FE0000020F3E70120F9E7FEE70000014A02498B
:100FF00000F023B85D100008140000200907090E56
:10100000002804DB00F1E02080F80014704700F0B5
:101010000F0000F1E02080F8141D704702E008C8BE
:10102000121F08C1002AFAD170477047002001E062
:1010300001C1121F002AFBD170472DE9F04116466D
:101040000F460446002503E03946B047641C6D1C7A
:1010500020780028F8D12846BDE8F08138B504464C
:101060008DF800004FF6FF73012269460248FFF732
:10107000EBFD204638BD000018000020FFF722FAE3
:10108000FFF79AFEFFF73EFE144813490C22016059
:101090004FF4E131416000218160C160C0E9041278
:1010A0008161C161FFF76AFD00244FF4FA750CA05D
:1010B000FFF79CFF2846FFF703F9641C052CF6DBBD
:1010C00008A000BFFFF792FF01210846FFF78EFA44
:1010D000FFF772FE07A0F5E700440040180000206B
:1010E0002E000000696E6974207375636365656422
:1010F0000D0A00006B65792070726573736564205A
:10110000210D0A000000000000000000010203049D
:101110000607080900000000010203043C11000852
:1011200000000020180000001C10000854110008E6
:1011300018000020400400002C10000800000000EF
:101140000100000010000000000000000024F40076
:04115000000000009B
:040000050800019559
:00000001FF
